:1000000001308A00E9290000831A0A289000030EB3
:1000100091000F2883129000030E910091140A089A
:1000200097008A018313900E040892000C08930035
:100030000D0894000E0895000F08960083120B1E01
:1000400023288B183A288B1E27280B197028120892
:10005000840013088C0014088D0015088E00160803
:100060008F0017088A00110E83008312100E91185A
:100070008316090083168612203083128606201804
:100080006D2881010108953C031842288316061447
:10009000831206186D282708053C031D57280130D8
:1000A000A700831606134030831286066D28270B9F
:1000B0005A285C2800305D280130BA002708063C29
:1000C000031964280030652801303A0403196C28AC
:1000D0000430A70020146D2820148B108A112728C3
:1000E00001309807003003180130990700300318D9
:1000F00001309A070030031801309B0781010B1172
:100100008A1127289B019A01990198018101080011
:100110002D080319F828B50031080319F828B50788
:10012000031899287F30B502031CF8280319F82812
:100130009D288130B5070318F82835088C008D01FB
:100140008E018F012E08B900B9172F08B8003008AA
:10015000B7001830B500B601371CC62834088F0721
:10016000031CB8288E0A031DB8288D0A0319B61778
:1001700033088E07031CBF288D0A0319B6173208EF
:10018000AF00AF172F088D070318B617B60D8D0CEB
:100190008E0C8F0CB90CB80CB70C0310B50BAB2838
:1001A00001308C070318F8288D1BDD28B90D8F0D41
:1001B0008E0D8D0D8C030319F828B91FEE288F0AB8
:1001C000031DEE288E0A031DEE288D0A031DEE285E
:1001D0008D0C8E0C8F0C8C0A0319F8282E08B60093
:1001E0003208B606B61FF6288D17FC288D13FC289A
:1001F0008C018D018E018F0108001B08AD001A08CB
:10020000AC001908AB001808AA00B6308C008F01AA
:100210008E018D012A082B042C042D04031D1229A4
:100220008C011F2903108D1B1E29AA0DAB0DAC0DCF
:10023000AD0D8F0D8E0D8D0D8C0B12298D130F08AA
:10024000B0000E08AF000D08AE000C08AD00BD30C8
:10025000B4003730B3000630B2007B30B1008820E4
:100260000F089F000E089E000D089D000C089C00C2
:100270001C088C001D088D001E088E001F088F00B2
:1002800008008E308C002E088D002D088E008F0106
:100290008D08031D55290E088D008E0108308C0233
:1002A0008D08031D55298C015D2903108D1B5C29C8
:1002B0008E0D8D0D8C0355298D13592A2F08B600EC
:1002C0003308B606B61F692903110310AF1B0314C8
:1002D0009C292F08B6003208B7002E08B702031970
:1002E0007729B61F9C290308013A83009C2933080B
:1002F000B7002F08B70203198329B61F9C290308EA
:10030000013A83009C293408B7003008B70203196A
:100310008F29B61F9C290308013A83009C293508C0
:10032000B7003108B70203199B29B61F9C2903089F
:10033000013A83009C290310080029148220FD2023
:100340000F08AD000E08AC000D08AB000C08AA00A9
:100350002D08B1002C08B0002B08AF002A08AE0011
:10036000B501B4012030B3008230B2005E21031C1D
:10037000BF29201CBE2929102010BF299F29291C14
:10038000C7298C018D018E018F01E829E829FD2004
:100390000F08AD000E08AC000D08AB000C08AA0059
:1003A0002D08B1002C08B0002B08AF002A08AE00C1
:1003B000B501B4012030B3008130B2005E21031CCE
:1003C000E7298316061483120618E729C729FD209A
:1003D000080003081F39830020100130A100A2008B
:1003E00083160108C03907388100831281018B16FA
:1003F0008316011383120B168B17831606128312B2
:1004000006128316861083128614831686118312B1
:10041000861183160614831220100130A700A8004D
:1004200089018316081483120808A10001302702ED
:10043000F93E0318A32B073EA52BA32B0330A800DE
:1004400083160612831206128316861083128610F4
:1004500083168611831286118316061183120611E4
:100460000530A700A32B0130A800822083160612B6
:1004700083120616831686108312861083160611C1
:10048000831206118316861183128615890183163D
:10049000081483120808A100FD200F08AC000E0804
:1004A000AB000D08AA000C08A900AE012108AD00A0
:1004B00041290F08B0000E08AF000D08AE000C086F
:1004C000AD00B401B3014030B2008030B1008820EB
:1004D0002C08B1002B08B0002A08AF002908AE0094
:1004E0000F08B5000E08B4000D08B3000C08B200E8
:1004F0005E21031C812A270B7E2A802AA014812AD0
:100500004C2AA018862A0630A700872AA010A32B01
:100510000630A80082208316061283120612831664
:100520008610831286148316061183120611831611
:10053000861183128615FD200F08AC000E08AB0053
:100540000D08AA000C08A9002C08B1002B08B00067
:100550002A08AF002908AE00B501B4012030B3006D
:100560008130B2005E21031CBC2A2708063C031917
:10057000BB2AA014BC2A9B2AA018C12A0130A700BC
:10058000C22AA010A32B9D210F08A6000E08A500CB
:100590000D08A4000C08A3002608B1002508B0002F
:1005A0002408AF002308AE00B501B401B3018030C8
:1005B000B2005E21031CF02A280BDF2AE12A00305A
:1005C000E22A0130A9002808063C0319E92A003074
:1005D000EA2A013029040319EF2A0330A700092B66
:1005E0000730A7002108A2000B088C008B1389019B
:1005F000210888008316081555308900AA30890023
:1006000088148818012B081183120C088C1B8B008E
:10061000A101A32B831606118312061583168610DB
:100620008312861483168611831286119D210F086A
:10063000A6000E08A5000D08A4000C08A3002608BB
:10064000B1002508B0002408AF002308AE00B501B2
:10065000B401B301B2015E21031D4A2BA108031DA1
:10066000472B2208A1000B088C008B13890121085D
:1006700088008316081555308900AA30890088142F
:100680008818402B081183120C088C1B8B0001303A
:10069000A700A32B2608B1002508B0002408AF004E
:1006A0002308AE00B501B401B3018030B2005E2171
:1006B000003003180130A900B101B001AF01AE0153
:1006C0002608B5002508B4002408B3002308B200AA
:1006D0005E2100300318013029050319882B0130F1
:1006E000A1070B088C008B13890121088800831651
:1006F000081555308900AA308900881488187E2B87
:10070000081183120C088C1B8B000730A700A32B49
:10071000A108031DA12B2208A1000B088C008B133C
:100720008901210888008316081555308900AA30F0
:100730008900881488189A2B081183120C088C1BC6
:100740008B000330A700162A63000A148A140A11CA
:100750008207332AA32B1E2AC32A1D2A882A0A2B82
:024200000100BB
:02400E00F13F80
:00000001FF
;PIC16F84A
;CRC=4331  CREATED="29-may.-18 13:01"
