:1000000001308A00E7290000FF00030E8301A500EC
:100010007F08A4000A08AB008A01A40E0408A60009
:100020002008A7002108A8002208A9002308AA0088
:10003000831383120B1E1E288B1833288B1E222835
:100040000B193528260884002708A0002808A100DD
:100050002908A2002A08A3002B088A00250E830085
:10006000FF0E7F0E09008A1137288A116D2883162A
:10007000861220308312860634186A28810101080E
:10008000953C03183F28831606148312061C6A2821
:100090003B08053C031D54280130BB0083160613A2
:1000A0004030831286066A283B0B572859280030B7
:1000B0005A280130CE003B08063C03196128003065
:1000C000622801304E04031969280430BB0034143F
:1000D0006A2834148B108A1122280130AC070030B2
:1000E00003180130AD07003003180130AE070030AF
:1000F00003180130AF0781010B118A112228AF01CB
:10010000AE01AD01AC018101080041080319F528D9
:10011000C90045080319F528C907031896287F3038
:10012000C902031CF5280319F5289A288130C9074C
:100130000318F5284908A000A101A201A301420863
:10014000CD00CD174308CC004408CB001830C900BF
:10015000CA014B1CC3284808A307031CB528A20AE0
:10016000031DB528A10A0319CA174708A207031CD3
:10017000BC28A10A0319CA174608C300C3174308BD
:10018000A1070318CA17CA0DA10CA20CA30CCD0C11
:10019000CC0CCB0C0310C90BA8280130A007031806
:1001A000F528A11BDA28CD0DA30DA20DA10DA003EA
:1001B0000319F528CD1FEB28A30A031DEB28A20A7B
:1001C000031DEB28A10A031DEB28A10CA20CA30C14
:1001D000A00A0319F5284208CA004608CA06CA1F21
:1001E000F328A117F928A113F928A001A101A20160
:1001F000A30108002F08C1002E08C0002D08BF0071
:100200002C08BE00B630A000A301A201A1013E0847
:100210003F0440044104031D0F29A0011C290310C1
:10022000A11B1B29BE0DBF0DC00DC10DA30DA20D3D
:10023000A10DA00B0F29A1132308C4002208C3009D
:100240002108C2002008C100BD30C8003730C700F7
:100250000630C6007B30C50085202308B300220885
:10026000B2002108B1002008B0003008A000310819
:10027000A1003208A2003308A30008008E30A000BD
:100280004208A1004108A200A301A108031D5229B0
:100290002208A100A2010830A002A108031D5229D2
:1002A000A0015A290310A11B5929A20DA10DA003D9
:1002B0005229A1138A114A2A4308CA004708CA06CC
:1002C000CA1F672903110310C31B03149A2943088B
:1002D000CA004608CB004208CB0203197529CA1F81
:1002E0009A290308013A83009A294708CB0043085A
:1002F000CB0203198129CA1F9A290308013A8300F6
:100300009A294808CB004408CB0203198D29CA1F3B
:100310009A290308013A83009A294908CB00450825
:10032000CB0203199929CA1F9A290308013A8300AD
:100330009A29031008003D147F20FA202308C100E9
:100340002208C0002108BF002008BE004108C500E7
:100350004008C4003F08C3003E08C200C901C801EC
:100360002030C7008230C6005C21031CBD29341C2C
:10037000BC293D103410BD299D293D1CC529A00173
:10038000A101A201A301E629E629FA202308C10060
:100390002208C0002108BF002008BE004108C50097
:1003A0004008C4003F08C3003E08C200C901C8019C
:1003B0002030C7008130C6005C21031CE52983166C
:1003C00006148312061CE529C529FA200800030833
:1003D0001F39830034100130B500B60083161F1496
:1003E0009F141F159F1107309C000108C039073862
:1003F0008100831281018B168316011783120B165D
:10040000C0308B04831606128312061283168611DF
:10041000831286158316061183120611831606149D
:10042000831234100330BB00BC0001303B02F93EA4
:100430000318382B073E3A2B382B0330BC008316A9
:1004400006128312061283168611831286118316F2
:100450000611831206110530BB00382B0130BC0099
:100460007F208316061283120616831686118312C6
:1004700086118316061183120615FA202308C00080
:100480002208BF002108BE002008BD00C2013508B7
:10049000C1003E292308C4002208C3002108C2006D
:1004A0002008C100C801C7014030C6008030C50027
:1004B00085204008C5003F08C4003E08C3003D0831
:1004C000C2002308C9002208C8002108C70020086C
:1004D000C6005C21031C722A3B0B6F2A712AB414DC
:1004E000722A3D2AB418772A0630BB00782AB41045
:1004F000382B0630BC007F208316061283120612AA
:10050000831686118312861583160611831206152B
:10051000FA202308C0002208BF002108BE002008DE
:10052000BD004008C5003F08C4003E08C3003D08A8
:10053000C200C901C8012030C7008130C6005C215B
:10054000031CA92A3B08063C0319A82AB414A92AAB
:10055000882AB418AE2A0130BB00AF2AB410382B59
:100560009B212308BA002208B9002108B8002008FE
:10057000B7003A08C5003908C4003808C300370876
:10058000C200C901C801C7018030C6005C21031C3C
:10059000DD2A3C0BCC2ACE2A0030CF2A0130BD0008
:1005A0003C08063C0319D62A0030D72A01303D0406
:1005B0000319DC2A0330BB00E22A0730BB003508F0
:1005C000B600B501382B83168611831286159B2140
:1005D0002308BA002208B9002108B8002008B70093
:1005E0003A08C5003908C4003808C3003708C200FB
:1005F000C901C801C701C6015C21031D072BB5084D
:10060000031D042B3608B5000130BB00382B3A0817
:10061000C5003908C4003808C3003708C200C90142
:10062000C801C7018030C6005C21003003180130CA
:10063000BD00C501C401C301C2013A08C90039089F
:10064000C8003808C7003708C6005C21003003180E
:1006500001303D050319312B0130B5070730BB00D0
:10066000382BB508031D362B3608B5000330BB0008
:10067000152A63000A148A140A1182072E2A382BBD
:0A0680001D2AB02A1C2A792AE32A59
:02400E00713F00
:00000001FF
;PIC16F873A
;CRC=6EE9  CREATED="27-may.-18 16:47"
